:1000000028C4000042C4000040C400003EC40000F8
:100010003CC400003AC4000038C4000036C40000EC
:1000200034C4000032C400000C94C20F2EC400007F
:100030002CC400002AC4000028C4000026C400000C
:1000400024C4000022C4000020C400001EC400001C
:100050001CC400001AC4000018C4000016C400002C
:1000600014C4000012C4000010C400000EC400003C
:100070000CC400000AC4000008C4000006C400004C
:1000800004C4000002C4000000C40000FEC300005D
:100090000C94A70BFAC30000F8C30000F6C30000DD
:1000A000F4C30000F2C30000F0C300006E616E00F4
:1000B000696E660000407A10F35A00A0724E18096B
:1000C0000010A5D4E80000E87648170000E40B54BF
:1000D000020000CA9A3B000000E1F505000080968E
:1000E0009800000040420F000000A08601000000C0
:1000F000102700000000E80300000000640000007A
:1001000000000A00000000000100000000002C7642
:10011000D888DC674F0823DFC1DFAE59E1B1B7965D
:10012000E5E3E453C63AE651997696E8E6C28426BA
:10013000EB898C9B62ED407C6FFCEFBC9C9F40F296
:10014000BAA56FA5F490055A2AF75C936B6CF96712
:100150006DC11BFCE0E40D47FEF520E6B500D0EDD7
:10016000902E0300943577050080841E080000203F
:100170004E0A000000C80C333333330F986E1283DD
:100180001141EF8D2114893BE65516CFFEE6DB18B1
:10019000D1844B381BF77C1D901DA4BBE424203276
:1001A00084725E228100C9F124ECA1E53D27200381
:1001B0005200650066006F0072006D0020004B0069
:1001C0006500790062006F00610072006400000049
:1001D00008034D004E005400000004030904090206
:1001E0002200010100C032090400000103010100E6
:1001F00009211101000122400007058103080005C3
:100200001201100100000008EB034220010001026E
:10021000000105010906A101050719E029E71500FC
:100220002501750195088102950175088101050870
:100230001901290595057501910295017503910133
:10024000150026FF000507190029FF95067508818E
:1002500000C00000000000000000000000000000DE
:10026000000000000000000000000000000000008E
:10027000000000000000000000000000000000007E
:10028000000000000000000000000000000000006E
:10029000000000000000000000000000000000005E
:1002A000000000000000000000000000000000004E
:1002B000000000000000000000000000000000003E
:1002C000000000000000000000000000000000002E
:1002D000000000000000000000000000000000001E
:1002E000000000000000000000000000000000000E
:1002F00000000000000000000000000000000000FE
:1003000000000000000000000000000000000000ED
:10031000000000000000000000005F000000000777
:1003200000000700247E247E240026497F493200F5
:100330000022100844000000000000000000040338
:100340000000003E414100000041413E00002A1CE7
:100350003E1C2A0008083E0808000000403000004B
:1003600008080808080000004000000020100804E9
:1003700002003E5149453E000804027F00004261F0
:10038000514946002241494936001814127F100095
:100390002F49494931003E4949493100412111095C
:1003A0000700364949493600264949493E000000C0
:1003B0002400000000004034000008142241000026
:1003C00014141414140000412214080002015109ED
:1003D00006003E414D514E007E0909097E007F49CD
:1003E000494936003E41414141007F4141413E0083
:1003F0007F49494941007F09090901003E414949B6
:1004000079007F0808087F0000007F00000031416C
:1004100041413F007F08142241007F40404040009E
:100420007F0204027F007F0204087F003E414141B9
:100430003E007F09090906003E4151215E007F0907
:100440000909760026494949320001017F0101006E
:100450003F4040403F001F2040201F007F201020D1
:100460007F006314081463000304780403006151DF
:1004700049454300007F414100000204081020006C
:100480000041417F00000804020408004040404051
:100490004000000000000000384444487C007F44D5
:1004A00044443800384444444400384444447F00C1
:1004B000385454544800047E05050500085454542B
:1004C00038007F080404780000007A000000204013
:1004D00040403A007F08142240003F404040400026
:1004E0007C04080478007C04040478003844444404
:1004F00038007C2424241800182424247C007C0840
:1005000004040400485454542400043E4444440069
:100510003C4040403C001C2040201C003C4020400F
:100520003C004428102844004C5050201C004464D7
:10053000544C4400000000000000000000000000D7
:1005400000000000000000000000000000000000AB
:1005500000003C7E4242424242424242427E3C7E57
:10056000425A5A4242424242427E3C7E425A5A5A81
:100570005A424242427E3C7E425A5A5A5A5A5A4241
:10058000427E3C7E425A5A5A5A5A5A5A427E000079
:10059000000000000000000000000000000000005B
:1005A000000000000000000000000000000000004B
:1005B000000000000000000000000000000000003B
:1005C000000000000000000000000000000000002B
:1005D000000000000000000000000000000000001B
:1005E000000000000000000000000000000000000B
:1005F00000000000000000000000000000000000FB
:1006000000000000000000000000000000000000EA
:100610000000FFFEFCF8F0E0C08000FFFEFCF8F0F8
:10062000E0C08000FFFEFCF8F0E0C08000F0F0F0D9
:10063000F0F0F0F0F0F0F0F000000000000000003A
:1006400000000000000000000000000000000000AA
:10065000000000000000000000000000000000009A
:10066000000000000000000000000000000000008A
:10067000000000000000000000000000000000007A
:10068000000000000000000000000000000000006A
:10069000000000000000000000000000000000005A
:1006A000000000000000000000000000000000004A
:1006B000000000000000000000000000000000003A
:1006C000000000000000000000000000000000002A
:1006D00000003F3F3F3F070F1F3F7FFFFFFFFF0728
:1006E0000F1F3F7FFFFFFFFF070F1F3F7FFFFFFF32
:1006F000FF000000F0F030B0B070F030B0B0B0F0FB
:1007000070B0B0B0F070B0B0B070F030B0B070F0A9
:100710003070F0F0F07030F0F000000000000000E9
:1007200000000000000000000000000000000000C9
:1007300000000000000000000000000000000000B9
:1007400000000000000000000000000000000000A9
:100750000000000000000000000000000000000099
:100760000000000000000000000000000000000089
:100770000000000000000000000000000000000079
:100780000000000000000000000000000000000069
:10079000000000000000000000000000010307004E
:1007A000000000000001030700000000000001033A
:1007B000070000007F7F607D7D627F606D6D6D7FD3
:1007C000607D7D7F7F706F6F6F707F607D7D627FEA
:1007D000607F7E7D7E7F607F7F00000000000000E4
:1007E0000000000000000000000000000000000009
:1007F00000000000000000000000000000000000F9
:1008000000000000000000000000000000000000E8
:1008100000000000000000000000000000000000D8
:1008200000000000000000000000000000000000C8
:1008300000000000000000000000000000000000B8
:1008400000000000000000000000000000000000A8
:10085000000011241FBECFEFDAE0DEBFCDBF11E0F4
:10086000A0E0B1E0E8EBF5E302C005900D92A43CF6
:10087000B107D9F723E0A4ECB1E001C01D92AE307E
:10088000B207E1F79FD60C94DA1ABACBCF93DF9375
:10089000D0E0C0E040E26D2F8C2FDFD7CF5FC531B5
:1008A000C9F7DF5FD430A9F7DF91CF91089589EEC2
:1008B00093E02091C80027FF04C02091CE0001974B
:1008C000C1F70895EF92FF920F931F93CF93DF9399
:1008D0007C011092D60100E010E081E291EAA7E0ED
:1008E000B0E0CFEFDFEF9E012F5F3F4F22303105A9
:1008F00078F42091C80027FF04C0C091CE00D0E05A
:1009000002C0CFEFDFEF0197A109B10961F74EC037
:10091000CA30D10529F0CD30D10521F4C1E04EC057
:1009200040E201C04C2FE114F10471F16091C80163
:100930008091CA0192D78091CA0140E26091C801BA
:100940008F5F8BD78091CA019091CB010196843142
:1009500091052CF49093CB018093CA0115C010929D
:10096000CB011092CA018091C8019091C9010196F2
:10097000833091052CF49093C9018093C80104C081
:100980001092C9011092C8010F3311055CF4C8011F
:100990000196F801EA52FE4FC083FC01EA52FE4F75
:1009A00010828C012D9709F098CFB8CFE114F10493
:1009B00021F044E560E084E150D7C0E078DFEF2823
:1009C00009F0E9D78C2F90E0DF91CF911F910F9123
:1009D000FF90EF9008951F93CF93DF9357DF32D7A7
:1009E000D1E010EAC0E0412F4C0F6D2F84E08C0F56
:1009F00034D7D1D7CF5FCC30B1F7105EDF5FD430C2
:100A000089F7C0E0D0E0CE0125D78FE39FE10197C1
:100A1000F1F700C000002196CF3FD105A1F7CFEF3D
:100A2000D0E0CE0117D78FE39FE10197F1F700C027
:100A300000002197B1F7DF91CF911F9108951F9387
:100A4000CF93DF9323DFFED6D1E010EAC0E0412F41
:100A50004C0F6D2F84E08C0F00D7CF5FCC30B9F7EF
:100A6000105EDF5FD43091F7D1E0C4E040E26D2F3B
:100A70008C2FF3D690D7CF5FC031C1F7DF5FD43072
:100A8000A1F7DF91CF911F91DBC6CF92DF92EF925A
:100A9000FF920F931F93CF93DF938C01EB016901BA
:100AA0007A0123E333E343E550E4C701B6010E9432
:100AB000221587FF22C026E636E646E450E4C70149
:100AC000B6010E94221587FF1AC020E030E040E402
:100AD00050E4C701B6010E94221587FF12C02AE91F
:100AE00039E949E350E4C701B6010E942215809517
:100AF000881F8827881F880F05C088E003C086E00C
:100B000001C084E0F801EC0FFD1F90E8980F90837E
:100B10008F578183DF91CF911F910F91FF90EF90BD
:100B2000DF90CF9008952F923F924F925F926F92F5
:100B30007F928F929F92AF92BF92CF92DF92EF926D
:100B4000FF920F931F93CF93DF93CDB7DEB7A99793
:100B50000FB6F894DEBF0FBECDBFA9DE1092CB0159
:100B60001092CA011092C9011092C8014E0181E28F
:100B7000880E911C85E0F40111928A95E9F7809125
:100B8000C80085FFFCCF86E58093CE008091C80029
:100B900085FFFCCF8DE08093CE008FE99FE0019729
:100BA000F1F700C0000080E090E08CDE86ED91E07F
:100BB0000E94E218BC01990F880B990B0E947214D5
:100BC00020E030E04AE754E40E9408146EA37FA3BB
:100BD00088A799A78091C80085FFFCCF81E6809304
:100BE000CE008091C80085FFFCCF8DE08093CE00C1
:100BF000EFE9FFE03197F1F700C0000080E090E0FE
:100C000061DE86ED91E00E94E218BC01990F880B2D
:100C1000990B0E94721420E030E04AE754E40E94ED
:100C200008146B017C018091C80085FFFCCF87E62A
:100C30008093CE008091C80085FFFCCF8DE080932B
:100C4000CE008FE99FE00197F1F700C0000080E03F
:100C500090E038DE44E050E066ED71E0C4010E94AF
:100C6000FF1986E1682E82E0782E10E3A12CB12CCA
:100C7000C5016AE070E00E948418082F40E8480F20
:100C800060E080E0EAD541E8400F60E081E0E5D532
:100C900082D68091C80085FFFCCF1093CE00809152
:100CA000C80085FFFCCF96E79093CE008091C800E6
:100CB00085FFFCCFEDE0E093CE008FE99FE0019748
:100CC000F1F700C0000080E090E0FCDD86ED91E0EF
:100CD0000E94E218BC01990F880B990B0E947214B4
:100CE00020E030E04AE754E40E9408141B012C0184
:100CF00020E030E0A9010E94041487FD10C020E02C
:100D000030E040EA50E4C201B1010E94221587FFA1
:100D100006C0F301208231824282538205C0F30172
:100D20001082118212821382F2E0AF0EB11C84E0B5
:100D3000680E711C1F5F183309F09ACFA7DD9F92D0
:100D40008F92809129028F93809128028F938091B6
:100D500027028F93809126028F93809119028F939F
:100D6000809118028F93809117028F9380911602C1
:100D70008F938CE691E09F938F938E010F5F1F4FAF
:100D80001F930F930E945D1A209116023091170253
:100D9000409118025091190260E070E0C80175DEC0
:100DA0002091260230912702409128025091290279
:100DB00068E070E0C80169DEA80160E080E058D515
:100DC00080912D028F9380912C028F9380912B0222
:100DD0008F9380912A028F9380911D028F9380912F
:100DE0001C028F9380911B028F9380911A028F9324
:100DF00080E891E09F938F931F930F930E945D1A59
:100E000020911A0230911B0240911C0250911D0248
:100E100060E070E0C80139DE20912A0230912B0297
:100E200040912C0250912D0268E070E0C8012DDE47
:100E3000A80161E080E01CD5F7FAF094F7F8F0948F
:100E4000FF92EF92DF92CF92809131028F93809147
:100E500030028F9380912F028F9380912E028F9377
:100E6000809121028F93809120028F9380911F02A5
:100E70008F9380911E028F9383E991E09F938F93CC
:100E80001F930F930E945D1A0FB6F894DEBF0FBE3A
:100E9000CDBF20911E0230911F024091200250913F
:100EA000210260E070E0C801F0DD20912E02309157
:100EB0002F02409130025091310268E070E0C80189
:100EC000E4DDA80162E080E0D3D4F9A5FF9388A512
:100ED0008F939FA19F93EEA1EF93809135028F9303
:100EE000809134028F93809133028F9380913202EC
:100EF0008F93809125028F93809124028F9380910C
:100F000023028F93809122028F938BEA91E09F932B
:100F10008F931F930F930E945D1A209122023091AC
:100F20002302409124025091250260E070E0C80144
:100F3000ACDD209132023091330240913402509165
:100F4000350268E070E0C801A0DDA80163E080E040
:100F50008FD421D50FB6F894DEBF0FBECDBFA996B2
:100F60000FB6F894DEBF0FBECDBFDF91CF911F91BA
:100F70000F91FF90EF90DF90CF90BF90AF909F9038
:100F80008F907F906F905F904F903F902F9008953B
:100F90007DDC8DDC1092CB011092CA011092C90148
:100FA0001092C8018091C80085FFFCCF83E7809331
:100FB000CE008091C80085FFFCCF8DE08093CE00ED
:100FC0008FE99FE00197F1F700C0000081E090E019
:100FD00079CC1F93CF93DF9359DC69DC1092CB015E
:100FE0001092CA011092C9011092C801C0E313E621
:100FF000DDE08091C80085FFFCCFC093CE008091DA
:10100000C80085FFFCCF1093CE008091C80085FFFB
:10101000FCCFD093CE008FE99FE00197F1F700C09D
:10102000000081E090E04EDCCF5FC83311F7DF9124
:10103000CF911F9108952ADC3ADC1092CB011092D7
:10104000CA011092C9011092C8018091C80085FFA1
:10105000FCCF86E58093CE008091C80085FFFCCF51
:101060008DE08093CE008FE99FE00197F1F700C0FB
:10107000000081E090E026DC8091C80085FFFCCF75
:1010800081E68093CE008091C80085FFFCCF8DE083
:101090008093CE008FE99FE00197F1F700C0000038
:1010A00081E090E00FDC8091C80085FFFCCF83E4F5
:1010B0008093CE008091C80085FFFCCF8DE08093A7
:1010C000CE008FE99FE00197F1F700C0000081E0BA
:1010D00090E0F8CB8091C6019091C7010A968F3FAE
:1010E000910514F08FEF90E09093C7018093C601B3
:1010F0008091C6019091C701ADC38091C6019091C6
:10110000C7010A9797FD05C09093C7018093C60158
:1011100004C01092C7011092C6018091C60190913F
:10112000C70198C38091000187BD81E884BD81E03B
:1011300085BD0895809100019091010102968A3049
:10114000910514F08AE090E09093010180930001F2
:101150008091000187BD409100015091010157FF2E
:1011600002C04F5F5F4F55954795405D64E080E05A
:1011700074D311C48091000190910101029797FDF1
:1011800005C0909301018093000104C010920101F9
:10119000109200018091000187BD409100015091A3
:1011A000010157FF02C04F5F5F4F55954795405D66
:1011B00064E080E052D3EFC369DB79DB1092CB01AE
:1011C0001092CA011092C9011092C8018091C80002
:1011D00085FFFCCF81E38093CE008091C80085FF1E
:1011E000FCCF80E78093CE008091C80085FFFCCFC4
:1011F0008DE08093CE008FE99FE00197F1F700C06A
:10120000000055DBE8DB8ECF1ADC51DB1092CB01FE
:101210001092CA011092C9011092C8018091C800B1
:1012200085FFFCCF80E38093CE008091C80085FFCE
:10123000FCCF80E78093CE008091C80085FFFCCF73
:101240008DE08093CE008FE99FE00197F1F700C019
:1012500000002DCB2F923F924F925F926F927F9220
:101260008F929F92AF92BF92CF92DF92EF92FF92B6
:101270000F931F93CF93DF9300D000D0CDB7DEB78D
:101280008A833B0182E1A82E81E0B82E97E9C92E1E
:1012900092E0D92E00E010E0212C412C1982552437
:1012A000539403301105A1F03CF40130110561F0B5
:1012B0000230110559F006C00430110559F005300F
:1012C000110551F02E9809C02D9807C02C9805C023
:1012D0005F9803C05E9801C05C9885E38A95F1F73A
:1012E0000000760145011C821B82F40131904F0100
:1012F000232D30E08B819C8187309105E9F1ACF49E
:101300008330910561F134F48130910521F1029728
:1013100021F11FC0EB81FC81E530F10531F154F57D
:1013200083B183FB882780F93FC08B819C818A3001
:10133000910559F134F48830910501F1099709F1CB
:1013400008C0EB81FC81EC30F10541F114F13D97CF
:1013500039F189B11FC08FB103C08CB122C086B1F1
:101360008095881F8827881F20C083B182FB88272B
:1013700080F91AC083B106C083B101C08FB18170FA
:1013800013C08FB1869581700FC08FB18295817027
:101390000BC08FB185FB882780F906C08FB101C0D3
:1013A00086B186FB882780F98525811105C0F70164
:1013B0009081992309F46FC0F7019081992319F066
:1013C0009150908305C0882319F085E0F701808350
:1013D0002394243A310509F45CC08091C5019A81B7
:1013E000992379F06114710461F081110AC0E5E07C
:1013F000E41508F450C0F301E40DF11D328243946A
:101400004AC0882309F447C08091C40190E028179E
:10141000390709F440C02732310511F4F5DE36C032
:101420002E31310511F4C8DE31C02931310511F4F6
:101430007ADB2CC02630310511F4CBDD27C02631F4
:10144000310511F4A5DD22C02C31310511F4F3DD95
:101450001DC02F31310511F4F3D118C020323105F0
:1014600011F4F0D113C02A33310511F483DE0EC01C
:101470002B33310511F45EDE09C02C33310511F434
:101480003CDE04C02D33310509F424DE3092C40162
:1014900002C0F1E0F9838B819C8101969C838B8350
:1014A0009FEFE91AF90AEB81FC813E9709F01DCF05
:1014B00003301105A1F03CF40130110561F0023058
:1014C000110559F006C00430110559F00530110519
:1014D00051F02E9A09C02D9A07C02C9A05C05F9A28
:1014E00003C05E9A01C05C9A0F5F1F4FFFE0AF0E12
:1014F000B11C8FE0C80ED11C0630110509F0D1CE09
:1015000099819093C501E1E0E21510F01092C401B9
:101510000F900F900F900F90DF91CF911F910F912F
:10152000FF90EF90DF90CF90BF90AF909F908F9003
:101530007F906F905F904F903F902F90089584B769
:10154000877F84BF0FB6F894A8958091600088616A
:1015500080936000109260000FBE90E080E80FB6AC
:10156000F89480936100909361000FBE80EF84B97E
:1015700017B889ED8AB91DB810BA8FE885B980EC23
:1015800088B980E28BB980E48EB98FEF81BB85B7D3
:10159000806885BF85B7806885BF80E0FFD11BDA92
:1015A00080E190E09093CD008093CC0086E0809322
:1015B000CA001092C80088E18093C900539A5A9AD1
:1015C000B1DDC3C4BCDF789460E070E080E042DE4F
:1015D00082E091E00E944A13FDD6F6CF0895089567
:1015E00082E091E00E943713E2EEF0E080818460B7
:1015F0008083089582E091E007C780911001909167
:101600001101009729F00197909311018093100127
:1016100008950F931F93B90181E01CDE88E090E0EC
:10162000F8019183808380E01F910F9108950895C0
:10163000292F332723303105E1F058F421303105CB
:1016400099F02230310569F582E290E02EED31E02B
:101650002CC02132310501F12232310511F580E42F
:1016600090E022E132E021C082E190E020E032E02F
:101670001CC099278130910549F028F0029789F420
:10168000EEEAF1E005C0EAEDF1E002C0E0EDF1E0E4
:10169000849190E09F0109C089E090E020EF31E063
:1016A00004C080E090E020E030E0FA013183208344
:1016B000089583E390E02091BC0027FD02C00197CC
:1016C000D1F708951092B9008CE08093B800089586
:1016D000CF93C82F84EA8093BC00EBDF8091B900E0
:1016E000887F883039F08091B900887F803111F08F
:1016F00081E011C0C093BB0084E88093BC00D9DFB7
:101700008091B900887F883129F08091B900887F65
:10171000803471F780E0CF91089584E98093BC0014
:1017200083E390E02091BC0024FD02C00197D1F733
:1017300008958093BB0084E88093BC00BADF909149
:10174000B900987F81E0983209F480E008951F92F3
:101750000F920FB60F9211248F939F93EF93FF93E5
:101760008091B900887F803869F038F48823C9F106
:101770008036C9F51092D40136C0883A09F1883B09
:10178000F9F031C08091D401811111C08091BB006A
:101790008093D5018091D501803120F01092D50140
:1017A00080E001C081E091E09093D4011DC0E09100
:1017B000D501F0E08091BB00EF50FD4F808308C061
:1017C000E091D501F0E0EF50FD4F80818093BB00A8
:1017D0008091D50190E001968F7099278093D50173
:1017E00002C01092BC0081E09091BC008295880FED
:1017F000880F807C9568892B8093BC00FF91EF91C6
:101800009F918F910F900FBE0F901F901895CF93BF
:10181000C82F88E75DDF811108C080E08ADF811171
:1018200004C08C2F86DFC1E08111C0E076DF8C2FF1
:10183000CF910895CF93C62FEADF8C2FCF91E7CFBA
:101840008EEAE5CF86EAE3DF882311F08FEADFCF67
:1018500080E00895682F81E8EDCF95E1699FB001A0
:1018600011246A5C7D4FFB01E80FF11D4083089550
:10187000FA0101900020E9F731979F01241B350BF5
:101880002631310514F025E130E0FA0195E1699F38
:10189000B001112490E0280F391F8217930764F4D8
:1018A000853191054CF44191DC01A60FB71FAA5C6C
:1018B000BD4F4C930196F1CF0895CF93DF93EC0188
:1018C00044E550E060E270E00E94F819FE01EC5A35
:1018D000FF4FD183C083CA5ADF4F81E08883DF91F5
:1018E000CF9108959F92AF92BF92CF92DF92EF92E5
:1018F000FF920F931F93CF93DF93EC01A3DF82E25C
:1019000086DF80E084DF83E082DF882309F437C04C
:1019100081E27DDF80E07BDF8DE779DF882379F16D
:1019200088E7D6DE80E405DF6E0184E0982E00E0D3
:1019300010E0F601E00FF11FA08086E0A89E5001A4
:101940001124E12CF12CF501EE0DFF1DEE5AFD4F97
:101950008491EFDE8FEFE81AF80A86E0E816F104CA
:1019600091F70F5F1F4F0531110519F79A9485E123
:10197000C80ED11C9110DBCFCA5ADF4F1882DF91FD
:10198000CF911F910F91FF90EF90DF90CF90BF907C
:10199000AF909F90C2CE86E392E0A4CFCF93DF9327
:1019A00091DE8EEA34DF811102C080E07EC060E803
:1019B00085ED40DF8823C9F36FE188EA3BDF8823A8
:1019C000A1F360E083ED36DF882379F380E41FDF45
:1019D000882359F364E18DE82DDF882331F360E03B
:1019E00080E228DF882309F381EA11DF8823E9F206
:1019F00088EC0DDF8823C9F262E08AED1BDF8823C3
:101A0000A1F26FE881E816DF882379F261EF89EDB2
:101A100011DF882309F4C9CF60E48BED0BDF882345
:101A200009F4C3CF84EAF3DE882309F4BECF86EA43
:101A3000EEDE882309F4B9CF8EE2E9DE882309F4CB
:101A4000B4CF8FEAE4DE882309F4AFCF60E081E809
:101A5000F1DE882309F4A9CF86E392E02EDF82E24B
:101A6000D6DE80E0D4DE83E0D2DE8823D9F081E2C6
:101A7000CEDE80E0CCDE8FE7CADE882399F088E7EF
:101A800027DE81110FC080E454DE81110BC0D4E049
:101A9000C0E080E04EDECF5FC038D9F7D150C1F74B
:101AA00010928C023ADE77DF81E0DF91CF910895CA
:101AB000CF92DF92EF92FF920F931F93CF93DF931A
:101AC000EC018B017A01CED1811133C0E114F10414
:101AD00039F0F70180819181081B190BC80FD91FBC
:101AE000C12CD12C0115110519F18091E80085FD5B
:101AF00016C08091E8008E778093E8006BD4E114E3
:101B0000F10449F0F70180819181C80ED91ED1827C
:101B1000C08285E00EC0A6D1882321F30AC0899136
:101B20008093F10001501109FFEFCF1ADF0ADACFDD
:101B300080E0DF91CF911F910F91FF90EF90DF90A8
:101B4000CF90089520910C0330910D03261737078D
:101B500048F06115710539F42091E8002E77209343
:101B6000E80001C0B901FC0120E06115710579F1BF
:101B7000809105038823F1F18530F1F18091E8002F
:101B800083FD3CC08091E80082FD2EC08091E8007A
:101B900080FFEBCF2091F3008091F20090E0922B38
:101BA0006115710551F08830910538F42191209329
:101BB000F100615071090196F3CF21E0089709F017
:101BC00020E08091E8008E778093E800CECF21114D
:101BD000CFCF0AC080910503882361F0853061F082
:101BE0008091E80083FD0AC08091E80082FFF2CF77
:101BF00080E0089582E0089583E0089581E00895EB
:101C00006115710529F42091E8002B772093E800F5
:101C1000FC016115710541F180910503882361F193
:101C2000853061F18091E80083FD24C08091E80057
:101C300082FFEFCF2091F3008091F20090E0922B91
:101C4000892B31F08091F10081936150710991F7F6
:101C50008091E8008B778093E800DBCF80910503CB
:101C6000882351F0853051F08091E80080FFF6CF55
:101C700080E0089581E0089582E0089583E008956A
:101C800020910C0330910D032617370748F061159A
:101C9000710539F42091E8002E772093E80001C007
:101CA000B901FC0120E06115710591F180910503F6
:101CB000882309F440C0853009F43FC08091E800D2
:101CC00083FD3DC08091E80082FD2FC08091E80037
:101CD00080FFE9CF2091F3008091F20090E0922BF9
:101CE0006115710559F08830910540F424912093D5
:101CF000F1003196615071090196F2CF21E0089709
:101D000009F020E08091E8008E778093E800CBCF47
:101D10002111CCCF0AC080910503882361F0853062
:101D200061F08091E80083FD0AC08091E80082FFA5
:101D3000F2CF80E0089582E0089583E0089581E085
:101D40000895982F973068F59093E900981739F027
:101D50007091EC002091ED005091F00003C0242F11
:101D6000762F50E021FD02C09F5FECCF3091EB0059
:101D70003E7F3093EB003091ED003D7F3093ED00DE
:101D80003091EB0031603093EB007093EC002093C6
:101D9000ED005093F0002091EE0027FDE5CF80E0AC
:101DA00008958F708093E90081E008950F931F9349
:101DB000CF93DF93062FEC0110E0101771F16881CB
:101DC000611103C01F5F2596F8CF2C81A981BA81CC
:101DD0009B81862F8F70873010F080E01FC02230EB
:101DE00010F442E001C046E0E8E0F0E020E0EA174D
:101DF000FB0720F42F5FEE0FFF1FF9CF2295207F06
:101E0000422B50E4959F90011124661F6627661FA0
:101E1000622B97DF8111D6CFE0CF81E0DF91CF91A8
:101E20001F910F9108958091060387FF11C0809143
:101E3000E80082FD05C0809105038111F8CF11C033
:101E40008091E8008B770BC080910503882349F0CF
:101E50008091E80080FFF8CF8091E8008E77809332
:101E6000E80008952091E4003091E50095E6409166
:101E7000EC00842F817040FF23C08091E80080FD3A
:101E80001DC080910503882399F0853099F08091D9
:101E9000EB0085FD11C04091E4005091E50024174E
:101EA000350729F3915011F09A01E1CF84E00895AC
:101EB00082E0089583E0089581E0089580E0089528
:101EC0004091E80042FFDDCF08950F931F93CF9319
:101ED000DF934BD052D0C8EDD0E088818F778883D4
:101EE00088818068888388818F7D888319BC10925F
:101EF000050310920103109203031092020300EEF7
:101F000010E0F80180818B7F8083888181608883E5
:101F100042E060E080E015DFE1EEF0E080818E7F5E
:101F20008083E2EEF0E08081816080838081886040
:101F30008083F80180818E7F80838881806188839F
:101F4000DF91CF911F910F910895E8EDF0E080812E
:101F50008F7E8083E7EDF0E080818160808384E084
:101F600082BF81E080930403B0CFE8EDF0E0808190
:101F70008E7F80831092E20008951092DA00109212
:101F8000E10008951F920F920FB60F9211242F9324
:101F90003F934F935F936F937F938F939F93AF93F1
:101FA000BF93EF93FF938091E10082FF0AC080917D
:101FB000E20082FF06C08091E1008B7F8093E10008
:101FC0001CDB8091DA0080FF1DC08091D80080FF6B
:101FD00019C08091DA008E7F8093DA008091D90059
:101FE00080FF0CC080E189BD82E189BD09B400FE9B
:101FF000FDCF81E080930503F1DA04C019BC109293
:102000000503EDDA8091E10080FF18C08091E200C5
:1020100080FF14C08091E2008E7F8093E200809167
:10202000E20080618093E2008091D800806280931A
:10203000D80019BC85E080930503CBD18091E100E5
:1020400084FF2FC08091E20084FF2BC080E189BD16
:1020500082E189BD09B400FEFDCF8091D8008F7D5B
:102060008093D8008091E1008F7E8093E100809181
:10207000E2008F7E8093E2008091E2008160809395
:10208000E20080910103882311F084E007C0809171
:10209000E30087FD02C081E001C083E08093050377
:1020A00098D18091E10083FF22C08091E20083FFFC
:1020B0001EC08091E100877F8093E10082E08093E1
:1020C0000503109201038091E1008E7F8093E1006F
:1020D0008091E2008E7F8093E2008091E200806137
:1020E0008093E20042E060E080E02BDE72D1FF915D
:1020F000EF91BF91AF919F918F917F916F915F9180
:102100004F913F912F910F900FBE0F901F901895F8
:102110001F93CF93DF93CDB7DEB7AA970FB6F8948E
:10212000DEBF0FBECDBFE6E0F3E08091F10081930A
:1021300023E0EE30F207C9F75DDA8091E80083FF13
:1021400030C18091060390910703953009F483C054
:1021500030F49130A9F168F0933091F122C19830B8
:1021600009F4EFC0993009F4FBC0963009F019C1A9
:1021700094C0803821F0823809F013C108C08091E2
:10218000020390910303992389F082600FC080912C
:102190000A038F70873008F004C18093E9008091B2
:1021A000EB0085FB882780F91092E9009091E80008
:1021B000977F9093E8008093F1001092F100CCC0DB
:1021C000282F2D7F09F0EDC0882319F0823061F0AF
:1021D000E8C080910803813009F0E3C0933009F032
:1021E00080E0809303032EC08091080381112AC0F0
:1021F00080910A038F702FEF280F263008F0D1C08E
:102200008093E9002091EB0020FF1CC0933021F463
:102210008091EB00806214C09091EB0090619093EC
:10222000EB0021E030E0A90102C0440F551F8A9560
:10223000E2F74093EA001092EA008091EB00886098
:102240008093EB001092E9008091E800877F8093F3
:10225000E800E9DDA6C08111A4C0109108031F7732
:102260008091E3008078812B8093E3008091E800E7
:10227000877F8093E800D7DD8091E80080FFFCCF66
:102280008091E30080688093E300111102C082E036
:1022900001C083E08093050384C08058823008F039
:1022A00080C080910803909109038C3D53E095070D
:1022B00071F583E08A838AE289834FB7F894DE015F
:1022C000139620E03EE051E2E32FF0E050935700F8
:1022D000E49120FF03C0E295EF703F5FEF708E2F17
:1022E00090E0EA3010F0C79601C0C0968D939D93A0
:1022F0002F5F243149F74FBF8091E800877F80939B
:10230000E8006AE270E0CE0101961CDC14C0609126
:102310000A0370910B03AE014F5F5F4F89D9BC0177
:10232000892B09F43EC09091E800977F9093E800D4
:1023300089819A81A5DC8091E8008B778093E80001
:1023400030C0803871F58091E800877F8093E80085
:10235000809101038093F1008091E8008E7777CF20
:1023600081111FC08091080390910903992702975A
:10237000C4F48091E800877F8093E800809108038F
:102380008093010350DD80910103811106C080918B
:10239000E30087FD02C081E001C084E08093050373
:1023A0001FD98091E80083FF0AC08091E800877FF1
:1023B0008093E8008091EB0080628093EB00AA9606
:1023C0000FB6F894DEBF0FBECDBFDF91CF911F9146
:1023D00008950895CF9380910503882399F0C091C3
:1023E000E900CF709091EC00892F817090FD80E81A
:1023F000C82B1092E9008091E80083FD89DECF7040
:10240000C093E900CF9108956F927F928F929F922F
:10241000AF92BF92CF92DF92EF92FF920F931F93F2
:10242000CF93DF9300D01F92CDB7DEB77C01ADB65E
:10243000BEB68091E80083FF03C1F701808190E080
:1024400020910A0330910B032817390709F0F8C0CF
:1024500080910703833009F49AC030F4813071F021
:10246000823009F4D1C0ECC08A3009F4B5C08B3099
:1024700009F49EC0893009F0E3C04CC08091060386
:10248000813A09F0DDC08DB69EB61A82198280911C
:102490000803109109038B83F7018085482F50E0D2
:1024A0008DB79EB7841B950B0FB6F8949EBF0FBED9
:1024B0008DBFEDB7FEB731966F0160E070E0CF01E0
:1024C00097D74FEF410F8E010F5F1F4F9601BE014F
:1024D0006D5F7F4FC7019DD8F70186819781009777
:1024E00021F0408550E0B6017AD71092E900809142
:1024F000E800877F8093E8008B8181118093F10051
:1025000069817A81C6011EDB8091E8008B77809318
:10251000E80037C080910603813209F091C08DB682
:102520009EB600910C0310910D037090080360900B
:1025300009038DB79EB7801B910B0FB6F8949EBF11
:102540000FBE8DBFEDB7FEB731966F018091E800E9
:10255000877F8093E800B801CF0152DB8091E800CB
:102560008E778093E80021E0711001C020E030E018
:10257000021B130B2C0D3D1D4FEF460D672DC701A0
:1025800056D80FB6F8949EBE0FBE8DBE59C080912E
:102590000603813A09F054C08091E800877F809358
:1025A000E8008091E80080FFFCCFF701818540C002
:1025B00080910603813209F043C08091E800877F53
:1025C0008093E80030DC9091080381E0911101C014
:1025D00080E0F701818734C080910603813281F564
:1025E0008091E800877F8093E8001DDC80910803DC
:1025F00090910903882736E0969587953A95E1F7FB
:10260000F701958784871CC080910603813AC1F445
:102610008091E800877F8093E8008091E80080FF48
:10262000FCCFF70184859585969587959695879536
:102630008093F1008091E8008E778093E800F3DBCF
:102640000FB6F894BEBE0FBEADBE0F900F900F90A8
:10265000DF91CF911F910F91FF90EF90DF90CF907E
:10266000BF90AF909F908F907F906F900895FC01E6
:10267000399627E0DF011D922A95E9F721E0FC0158
:10268000218724EF31E03587248723E0248361E02C
:1026900001968CCB5F926F927F928F929F92AF92B6
:1026A000BF92CF92DF92EF92FF920F931F93CF933F
:1026B000DF9300D01F92CDB7DEB77C01ADB6BEB6BA
:1026C00080910503843009F087C08091E4009091E7
:1026D000E500F701228533852817390709F47CC006
:1026E00081818F708093E9008091E80085FF74C03C
:1026F0008DB69EB6408550E08DB79EB7841B950B76
:102700000FB6F8949EBF0FBE8DBFEDB7FEB73196E2
:102710006F011B821A82198260E070E0CF0168D6D7
:102720008E010F5F1F4F960140E0BE016D5F7F4F2E
:10273000C7010E94090B582EF70184859585892BC6
:1027400029F011E086859785892B09F010E0F701C3
:10275000668077806114710481F049815A81B301E8
:10276000C60130D601E0892B09F400E0F70140856D
:1027700050E0B601C30133D601C000E089819A81DF
:10278000892BF1F0511004C0011102C010FF18C0D4
:10279000F701848595859787868781818F708093DF
:1027A000E9008B8181118093F10069817A8140E099
:1027B00050E0C6017DD98091E8008E778093E800D3
:1027C0008091E4009091E500F701938782870FB62E
:1027D000F8949EBE0FBE8DBE0FB6F894BEBE0FBE5F
:1027E000ADBE0F900F900F90DF91CF911F910F9181
:1027F000FF90EF90DF90CF90BF90AF909F908F9021
:102800007F906F905F900895A8D008F481E00895BC
:102810000CD0DEC0D6D040F0CDD030F021F45F3FF8
:1028200019F0BFC0511108C1C2C0E3D098F3992379
:10283000C9F35523B1F3951B550BBB27AA27621784
:102840007307840738F09F5F5F4F220F331F441FC9
:10285000AA1FA9F333D00E2E3AF0E0E830D0915001
:102860005040E695001CCAF729D0FE2F27D0660FEE
:10287000771F881FBB1F261737074807AB07B0E82D
:1028800009F0BB0B802DBF01FF2793585F4F2AF043
:102890009E3F510568F085C0CFC05F3FECF3983E86
:1028A000DCF3869577956795B795F7959F5FC9F7A0
:1028B000880F911D9695879597F90895E1E0660F29
:1028C000771F881FBB1F621773078407BA0720F0A2
:1028D000621B730B840BBA0BEE1F88F7E09508950B
:1028E000E89409C097FB3EF49095809570956195AA
:1028F0007F4F8F4F9F4F9923A9F0F92F96E9BB2760
:102900009395F695879577956795B795F111F8CFDB
:10291000FAF4BB0F11F460FF1BC06F5F7F4F8F4F46
:102920009F4F16C0882311F096E911C0772321F03C
:102930009EE8872F762F05C0662371F096E8862FD4
:1029400070E060E02AF09A95660F771F881FDAF72B
:10295000880F9695879597F90895990F0008550F58
:10296000AA0BE0E8FEEF16161706E807F907C0F015
:1029700012161306E407F50798F0621B730B840B1D
:10298000950B39F40A2661F0232B242B252B21F4F7
:1029900008950A2609F4A140A6958FEF811D811D97
:1029A000089597F99F6780E870E060E008959FEFD1
:1029B00080EC089500240A941616170618060906D6
:1029C000089500240A9412161306140605060895A5
:1029D000092E0394000C11F4882352F0BB0F40F42D
:1029E000BF2B11F460FF04C06F5F7F4F8F4F9F4F6D
:1029F000089557FD9058440F551F59F05F3F71F0EF
:102A00004795880F97FB991F61F09F3F79F0879555
:102A10000895121613061406551FF2CF4695F1DFDE
:102A200008C0161617061806991FF1CF869571056E
:102A3000610508940895E894BB2766277727CB01A2
:102A400097F908958ADF08F48FEF0895A0E1B0E0C8
:102A5000EBE2F5E16CC37C011B016A01FC0117820A
:102A60001682838181FF2AC39E012F5F3F4F390168
:102A7000F7019381F10193FD859193FF81911F01EE
:102A8000882309F417C3853239F493FD859193FFA8
:102A900081911F01853231F4B70190E0D2D4560103
:102AA0006501E6CF10E0512C912CFFE1F915D8F02B
:102AB0008B3279F038F4803279F08332A1F4F92D39
:102AC000F0612EC08D3261F0803369F4292D2160D0
:102AD0002DC0392D3260932E892D8460982E2AC006
:102AE000E92DE86015C097FC2DC020ED280F2A3095
:102AF00088F496FE06C03AE0139F200D1124122F91
:102B000019C08AE0589E200D1124522EE92DE06252
:102B10009E2E10C08E3231F496FCCCC2F92DF0649A
:102B20009F2E08C08C3621F4292D2068922E02C0D9
:102B3000883641F4F10193FD859193FF81911F0146
:102B40008111B3CF9BEB980F933020F4992D9061B6
:102B5000805E07C09BE9980F933008F059C1992D0A
:102B60009F7E96FF16E09F73992E853619F4906428
:102B7000992E08C0863621F4392F3068932E02C072
:102B80001111115097FE07C01C3350F44424439494
:102B9000410E27E00BC0183038F027E017E005C0E1
:102BA00027E09CE3492E02C0212F412C560184E0EE
:102BB000A80EB11CF6016081718182819381042D80
:102BC000A3011DD36C01F981FC87F0FF02C0F3FF64
:102BD00006C091FC06C092FE06C000E205C00DE2F0
:102BE00003C00BE201C000E08C858C7019F001116C
:102BF00043C280C297FE10C04C0CFC85F4FF04C099
:102C00008A81813309F44A94141474F528E0241558
:102C100078F588E0482E2CC096FC2AC0812F90E0E1
:102C20008C159D059CF03CEFC3163FEFD30674F066
:102C3000892D8068982E0AC0E2E0F0E0EC0FFD1FBD
:102C4000E10FF11D8081803319F411501111F4CF7F
:102C500097FE0EC044244394410E812F90E0C81685
:102C6000D9062CF41C1904C04424439401C010E07C
:102C700097FE06C01C141D0434F4C601019605C05D
:102C800085E090E002C081E090E0011101961123FF
:102C900031F0212F30E02F5F3F4F820F931F252D02
:102CA00030E08217930714F4581A01C0512C892D73
:102CB000897041F4552031F0B70180E290E0C1D332
:102CC0005A94F8CF002321F0B701802F90E0B9D3B8
:102CD00093FC08C0552031F0B70180E390E0B1D3F8
:102CE0005A94F8CF97FE4AC04601D7FE02C0812C05
:102CF000912CC60188199909F301E80FF91FFE8785
:102D0000ED87960124193109388B2F87012F10E0A8
:102D10001195019511093FEF8316930621F4B70130
:102D20008EE290E08ED3C814D9044CF08F85988938
:102D30008815990524F4ED85FE85818101C080E325
:102D4000F1E08F1A91082D853E852F5F3F4F3E871A
:102D50002D878016910624F0B70190E072D3DBCF67
:102D6000C814D90441F49A81963320F4953319F4A8
:102D70003C8534FF81E3B70190E048C08A8181330C
:102D800019F09C859F7E9C87B70190E05AD3111162
:102D900005C094FC16C085E690E015C0B7018EE230
:102DA00090E04FD31E5F82E001E0080FF301E80FCF
:102DB000F11D8081B70190E044D3802F0113F4CF3F
:102DC000E8CF85E490E0B7013CD3D7FC06C0C1143E
:102DD000D10441F4EC85E4FF05C0D194C194D1083D
:102DE0008DE201C08BE2B70190E02BD380E32AE0B3
:102DF000C216D1042CF08F5FFAE0CF1AD108F7CFBA
:102E0000B70190E01ED3B701C601C0961AD349C1DD
:102E1000833631F0833779F0833509F052C01FC013
:102E2000560132E0A30EB11CF6018081898301E0D6
:102E300010E0630111C05601F2E0AF0EB11CF601C3
:102E4000C080D18096FE03C0612F70E002C06FEF9A
:102E50007FEFC601E3D28C01F92DFF7713C0560135
:102E600022E0A20EB11CF601C080D18096FE03C004
:102E7000612F70E002C06FEF7FEFC60198D28C0126
:102E8000F92DF0689F2EF3FD18C0852D90E00817EE
:102E9000190798F4B70180E290E0D3D25A94F5CFA5
:102EA000F60197FC859197FE81916F01B70190E043
:102EB000C8D251105A94015011090115110581F71A
:102EC000F0C0843611F0893659F5560197FE09C0D5
:102ED00024E0A20EB11CF601608171818281938190
:102EE0000AC0F2E0AF0EB11CF60160817181072EBD
:102EF000000C880B990BF92DFF769F2E97FF09C0C8
:102F000090958095709561957F4F8F4F9F4FF0689A
:102F10009F2E2AE030E0A301EFD2C82EC6183EC093
:102F2000092D853721F40F7E2AE030E01DC0097F8E
:102F30008F3691F018F4883559F0BCC0803719F0FD
:102F4000883711F0B7C0006104FF09C0046007C0F2
:102F500094FE08C0066006C028E030E005C020E10D
:102F600030E002C020E132E0560107FF09C084E0F2
:102F7000A80EB11CF601608171818281938108C025
:102F8000F2E0AF0EB11CF6016081718180E090E04B
:102F9000A301B2D2C82EC6180F77902E96FE0BC092
:102FA000092D0E7FC11650F494FE0AC092FC08C091
:102FB000092D0E7E05C0DC2C092D03C0DC2C01C0C0
:102FC000D12E04FF0DC0FE01EC0DF11D8081803378
:102FD00011F4097E09C002FF06C0D394D39404C043
:102FE000802F867809F0D39403FD10C000FF06C03F
:102FF0001C2DD51478F4150D1D190CC0D51450F4E2
:10300000B70180E290E01DD2D394F8CFD51410F42C
:103010005D1801C0512C04FF0FC0B70180E390E0A0
:1030200010D202FF16C001FD03C088E790E002C085
:1030300088E590E0B7010CC0802F867851F001FF41
:1030400002C08BE201C080E207FD8DE2B70190E093
:10305000F8D1C11630F4B70180E390E0F2D11150FD
:10306000F8CFCA94F301EC0DF11D8081B70190E017
:10307000E8D1C110F6CF15C0F4E0F51550F584E0A5
:10308000581A93FE1EC0011125C02C8523FF27C0AE
:103090000CEA10E0392D3071932EF80184918111E2
:1030A00021C0552009F4FCCCB70180E290E0C9D1E1
:1030B0005A94F7CFF7018681978123C08FEF9FEF56
:1030C00020C0B70180E290E0BCD15A945110F9CFF2
:1030D000DACF512CB701802F90E0B3D1D6CF00EBDF
:1030E00010E0D8CF91108052B70190E0AAD10F5FC5
:1030F0001F4FD3CF23E0251510F483E0C1CF512C0F
:10310000C4CF6096E2E12FC097FB072E16F400941F
:1031100006D077FD08D042D007FC05D03EF490954C
:1031200081959F4F0895709561957F4F08952F92D7
:103130003F924F925F926F927F928F929F92AF9247
:10314000BF92CF92DF92EF92FF920F931F93CF9394
:10315000DF93CDB7DEB7CA1BDB0B0FB6F894DEBF2B
:103160000FBECDBF09942A88398848885F846E8451
:103170007D848C849B84AA84B984C884DF80EE809B
:10318000FD800C811B81AA81B981CE0FD11D0FB6A4
:10319000F894DEBF0FBECDBFED010895AA1BBB1B87
:1031A00051E107C0AA1FBB1FA617B70710F0A61B47
:1031B000B70B881F991F5A95A9F780959095BC0168
:1031C000CD010895FC0188279927E89421912032A8
:1031D000E9F3293010F02E30C8F32B3239F02D32BC
:1031E00031F4689403C025D1820F911D21912053A1
:1031F0002A30C8F31EF4909581959F4F089528308A
:1032000008F027E03327DA01990F311D87FD91601F
:1032100000966105710539F432602E5F3D9330E30D
:103220002A95E1F708959F3F30F0803871056105D8
:1032300009F03C5F3C5F3D93913008F08068911D40
:10324000DF93CF931F930F93FF92EF92192F987FE5
:103250009695E92F96959695E90FFF27E25FFE4F29
:1032600099273327EE24FF24A701E701059008944E
:10327000079428F4360FE71EF81E491F511D660FEC
:10328000771F881F991F0694A1F70590079428F4CB
:10329000E70EF81E491F561FC11D770F881F991F83
:1032A000661F0694A1F70590079428F4F80E491FAD
:1032B000561FC71FD11D880F991F661F771F0694C1
:1032C000A1F70590079420F4490F561FC71FD81F78
:1032D000990F661F771F881F0694A9F78491109590
:1032E000177041F0D695C79557954795F794E79491
:1032F0001A95C1F7E4EBF0E06894159015913591BB
:103300006591959105907FE27395E118F10A430B61
:10331000560BC90BD009C0F7E10CF11E431F561F15
:10332000C91FD01D7EF4703311F48A95E6CFE8945E
:10333000015030F0080F0AF40027021708F4202F7C
:103340002395022F7A3328F079E37D932A95E9F7C4
:1033500010C07D932A9589F60694979567953795C1
:1033600017951794E118F10A430B560BC90BD009B6
:1033700098F023957E9173957A3308F070E37C93EF
:103380002013B8F77E9170617D9330F0839571E3DF
:103390007D9370E32A95E1F71124EF90FF900F9150
:1033A0001F91CF91DF91992787FD90950895FC019A
:1033B0000590615070400110D8F7809590958E0F60
:1033C0009F1F0895FB01DC0104C08D9101908019BD
:1033D00021F441505040C8F7881B990B0895FB0118
:1033E000DC0102C001900D9241505040D8F7089581
:1033F000DC0101C06D9341505040E0F70895FB019E
:10340000DC014150504048F001900D920020C9F776
:1034100001C01D9241505040E0F70895FC016150F9
:10342000704001900110D8F7809590958E0F9F1FE6
:1034300008957AE0979F902D879F802D910D1124FC
:1034400008950F931F93CF93DF93FB01238121FDF9
:1034500003C08FEF9FEF2CC022FF16C0468157811B
:10346000248135814217530744F4A081B1819D0125
:103470002F5F3F4F318320838C93268137812F5FCD
:103480003F4F3783268314C08B01EC01FB0100847E
:10349000F185E02D0995892BE1F6D80116968D91DD
:1034A0009C911797019617969C938E931697CE0131
:1034B000DF91CF911F910F910895AEE0B0E0E2E669
:1034C000FAE143CE0D891E8986E08C831A83098335
:1034D0008FEF9FE79E838D83AE01475E5F4F6F89BD
:1034E000788DCE010196B2DAEF81F885E00FF11FF9
:1034F00010822E96E4E045CEFA01AA27283051F139
:10350000203181F1E8946F936E7F6E5F7F4F8F4F14
:103510009F4FAF4FB1E03ED0B4E03CD0670F781F73
:10352000891F9A1FA11D680F791F8A1F911DA11D58
:103530006A0F711D811D911DA11D20D009F4689491
:103540003F912AE0269F11243019305D3193DEF639
:10355000CF010895462F4770405D4193B3E00FD0EF
:10356000C9F7F6CF462F4F70405D4A3318F0495DDA
:1035700031FD4052419302D0A9F7EACFB4E0A695BD
:103580009795879577956795BA95C9F700976105DF
:10359000710508959B01AC010A2E06945795479535
:1035A00037952795BA95C9F7620F731F841F951F2A
:0835B000A01D0895F894FFCF5F
:1035B8000800008108000001CC010800000000009C
:1035C8000000293A3B3C3D3E3F404142434445A42C
:1035D800A4351E1F20212223242526272D2E2A002C
:1035E8002B141A0815171C180C12132F303100E071
:1035F80065041607090A0B0D0E0F33342800E14C39
:103608001D1B061905111036373852E500A4E3E0F2
:103618002CE2E62C4B4E50514F0000005B5D2025FC
:103628002E316620205B5D20252E31662025730013
:103638005B5D20252E316620205B5D20252E3166BE
:103648002020005B5D20252E316620205B5D202533
:103658002E31662020252E326641005B5D20252E06
:10366800316620205B5D20252E31662020252E31F5
:043678006656000092
:00000001FF
